{
  "_format": "hh-sol-artifact-1",
  "contractName": "SolanaBridge",
  "sourceName": "contracts/SolanaBridge.sol",
  "abi": [
    {
      "inputs": [
        {
          "internalType": "address",
          "name": "_wrappedSOL",
          "type": "address"
        },
        {
          "internalType": "address",
          "name": "_validatorRegistry",
          "type": "address"
        },
        {
          "internalType": "uint256",
          "name": "_feeBasisPoints",
          "type": "uint256"
        }
      ],
      "stateMutability": "nonpayable",
      "type": "constructor"
    },
    {
      "inputs": [],
      "name": "EnforcedPause",
      "type": "error"
    },
    {
      "inputs": [],
      "name": "ExpectedPause",
      "type": "error"
    },
    {
      "inputs": [
        {
          "internalType": "address",
          "name": "owner",
          "type": "address"
        }
      ],
      "name": "OwnableInvalidOwner",
      "type": "error"
    },
    {
      "inputs": [
        {
          "internalType": "address",
          "name": "account",
          "type": "address"
        }
      ],
      "name": "OwnableUnauthorizedAccount",
      "type": "error"
    },
    {
      "inputs": [],
      "name": "ReentrancyGuardReentrantCall",
      "type": "error"
    },
    {
      "anonymous": false,
      "inputs": [
        {
          "indexed": false,
          "internalType": "uint256",
          "name": "oldFee",
          "type": "uint256"
        },
        {
          "indexed": false,
          "internalType": "uint256",
          "name": "newFee",
          "type": "uint256"
        }
      ],
      "name": "FeeUpdated",
      "type": "event"
    },
    {
      "anonymous": false,
      "inputs": [
        {
          "indexed": true,
          "internalType": "address",
          "name": "previousOwner",
          "type": "address"
        },
        {
          "indexed": true,
          "internalType": "address",
          "name": "newOwner",
          "type": "address"
        }
      ],
      "name": "OwnershipTransferred",
      "type": "event"
    },
    {
      "anonymous": false,
      "inputs": [
        {
          "indexed": false,
          "internalType": "address",
          "name": "account",
          "type": "address"
        }
      ],
      "name": "Paused",
      "type": "event"
    },
    {
      "anonymous": false,
      "inputs": [
        {
          "indexed": true,
          "internalType": "address",
          "name": "user",
          "type": "address"
        },
        {
          "indexed": false,
          "internalType": "uint256",
          "name": "amount",
          "type": "uint256"
        },
        {
          "indexed": false,
          "internalType": "uint256",
          "name": "nonce",
          "type": "uint256"
        },
        {
          "indexed": false,
          "internalType": "uint8",
          "name": "destChain",
          "type": "uint8"
        },
        {
          "indexed": false,
          "internalType": "bytes",
          "name": "destAddress",
          "type": "bytes"
        },
        {
          "indexed": false,
          "internalType": "uint256",
          "name": "timestamp",
          "type": "uint256"
        }
      ],
      "name": "TokensBurned",
      "type": "event"
    },
    {
      "anonymous": false,
      "inputs": [
        {
          "indexed": true,
          "internalType": "address",
          "name": "user",
          "type": "address"
        },
        {
          "indexed": false,
          "internalType": "uint256",
          "name": "amount",
          "type": "uint256"
        },
        {
          "indexed": false,
          "internalType": "uint256",
          "name": "nonce",
          "type": "uint256"
        },
        {
          "indexed": false,
          "internalType": "uint256",
          "name": "timestamp",
          "type": "uint256"
        }
      ],
      "name": "TokensMinted",
      "type": "event"
    },
    {
      "anonymous": false,
      "inputs": [
        {
          "indexed": false,
          "internalType": "address",
          "name": "account",
          "type": "address"
        }
      ],
      "name": "Unpaused",
      "type": "event"
    },
    {
      "anonymous": false,
      "inputs": [
        {
          "indexed": true,
          "internalType": "address",
          "name": "oldRegistry",
          "type": "address"
        },
        {
          "indexed": true,
          "internalType": "address",
          "name": "newRegistry",
          "type": "address"
        }
      ],
      "name": "ValidatorRegistryUpdated",
      "type": "event"
    },
    {
      "inputs": [
        {
          "internalType": "uint256",
          "name": "amount",
          "type": "uint256"
        },
        {
          "internalType": "uint8",
          "name": "destChain",
          "type": "uint8"
        },
        {
          "internalType": "bytes",
          "name": "destAddress",
          "type": "bytes"
        }
      ],
      "name": "burnAndBridge",
      "outputs": [],
      "stateMutability": "nonpayable",
      "type": "function"
    },
    {
      "inputs": [],
      "name": "feeBasisPoints",
      "outputs": [
        {
          "internalType": "uint256",
          "name": "",
          "type": "uint256"
        }
      ],
      "stateMutability": "view",
      "type": "function"
    },
    {
      "inputs": [],
      "name": "getFee",
      "outputs": [
        {
          "internalType": "uint256",
          "name": "",
          "type": "uint256"
        }
      ],
      "stateMutability": "view",
      "type": "function"
    },
    {
      "inputs": [
        {
          "internalType": "uint256",
          "name": "nonce",
          "type": "uint256"
        }
      ],
      "name": "isNonceProcessed",
      "outputs": [
        {
          "internalType": "bool",
          "name": "",
          "type": "bool"
        }
      ],
      "stateMutability": "view",
      "type": "function"
    },
    {
      "inputs": [
        {
          "internalType": "address",
          "name": "user",
          "type": "address"
        },
        {
          "internalType": "uint256",
          "name": "amount",
          "type": "uint256"
        },
        {
          "internalType": "uint256",
          "name": "nonce",
          "type": "uint256"
        },
        {
          "internalType": "bytes[]",
          "name": "signatures",
          "type": "bytes[]"
        }
      ],
      "name": "mintWrapped",
      "outputs": [],
      "stateMutability": "nonpayable",
      "type": "function"
    },
    {
      "inputs": [],
      "name": "owner",
      "outputs": [
        {
          "internalType": "address",
          "name": "",
          "type": "address"
        }
      ],
      "stateMutability": "view",
      "type": "function"
    },
    {
      "inputs": [],
      "name": "pause",
      "outputs": [],
      "stateMutability": "nonpayable",
      "type": "function"
    },
    {
      "inputs": [],
      "name": "paused",
      "outputs": [
        {
          "internalType": "bool",
          "name": "",
          "type": "bool"
        }
      ],
      "stateMutability": "view",
      "type": "function"
    },
    {
      "inputs": [
        {
          "internalType": "uint256",
          "name": "",
          "type": "uint256"
        }
      ],
      "name": "processedNonces",
      "outputs": [
        {
          "internalType": "bool",
          "name": "",
          "type": "bool"
        }
      ],
      "stateMutability": "view",
      "type": "function"
    },
    {
      "inputs": [],
      "name": "renounceOwnership",
      "outputs": [],
      "stateMutability": "nonpayable",
      "type": "function"
    },
    {
      "inputs": [
        {
          "internalType": "address",
          "name": "newOwner",
          "type": "address"
        }
      ],
      "name": "transferOwnership",
      "outputs": [],
      "stateMutability": "nonpayable",
      "type": "function"
    },
    {
      "inputs": [],
      "name": "unpause",
      "outputs": [],
      "stateMutability": "nonpayable",
      "type": "function"
    },
    {
      "inputs": [
        {
          "internalType": "uint256",
          "name": "_feeBasisPoints",
          "type": "uint256"
        }
      ],
      "name": "updateFee",
      "outputs": [],
      "stateMutability": "nonpayable",
      "type": "function"
    },
    {
      "inputs": [
        {
          "internalType": "address",
          "name": "_validatorRegistry",
          "type": "address"
        }
      ],
      "name": "updateValidatorRegistry",
      "outputs": [],
      "stateMutability": "nonpayable",
      "type": "function"
    },
    {
      "inputs": [],
      "name": "validatorRegistry",
      "outputs": [
        {
          "internalType": "contract ValidatorRegistry",
          "name": "",
          "type": "address"
        }
      ],
      "stateMutability": "view",
      "type": "function"
    },
    {
      "inputs": [],
      "name": "wrappedSOL",
      "outputs": [
        {
          "internalType": "contract WrappedSOL",
          "name": "",
          "type": "address"
        }
      ],
      "stateMutability": "view",
      "type": "function"
    }
  ],
  "bytecode": "0x60806040523480156200001157600080fd5b50604051620010fd380380620010fd833981016040819052620000349162000210565b600160005533806200006157604051631e4fbdf760e01b8152600060048201526024015b60405180910390fd5b6200006c8162000199565b506001600160a01b038316620000c55760405162461bcd60e51b815260206004820152601460248201527f496e76616c69642077534f4c2061646472657373000000000000000000000000604482015260640162000058565b6001600160a01b0382166200011d5760405162461bcd60e51b815260206004820152601860248201527f496e76616c696420726567697374727920616464726573730000000000000000604482015260640162000058565b612710811115620001605760405162461bcd60e51b815260206004820152600c60248201526b08ccaca40e8dede40d0d2ced60a31b604482015260640162000058565b600280546001600160a01b039485166001600160a01b031991821617909155600380549390941692169190911790915560055562000251565b600180546001600160a01b03838116610100818102610100600160a81b031985161790945560405193909204169182907f8be0079c531659141344cd1fd0a4f28419497f9722a3daafe3b4186f6b6457e090600090a35050565b80516001600160a01b03811681146200020b57600080fd5b919050565b6000806000606084860312156200022657600080fd5b6200023184620001f3565b92506200024160208501620001f3565b9150604084015190509250925092565b610e9c80620002616000396000f3fe608060405234801561001057600080fd5b50600436106101005760003560e01c80639012c4a811610097578063c904aa0e11610066578063c904aa0e1461020e578063ced72f8714610221578063f2fde38b14610229578063f376ebbb1461023c57600080fd5b80639012c4a8146101ae57806391dae519146101c1578063b840440d146101e4578063b8606eef146101f757600080fd5b8063715018a6116100d3578063715018a61461016157806380d5c523146101695780638456cb591461017c5780638da5cb5b1461018457600080fd5b806302947bbf146101055780633f4ba83a1461011a5780635c975abb146101225780636b3f4b3f1461013e575b600080fd5b610118610113366004610b6e565b61024f565b005b6101186105f3565b60015460ff165b60405190151581526020015b60405180910390f35b61012961014c366004610c05565b60009081526004602052604090205460ff1690565b610118610605565b610118610177366004610c1e565b610617565b6101186106c7565b60015461010090046001600160a01b03165b6040516001600160a01b039091168152602001610135565b6101186101bc366004610c05565b6106d7565b6101296101cf366004610c05565b60046020526000908152604090205460ff1681565b6101186101f2366004610c40565b610776565b61020060055481565b604051908152602001610135565b600254610196906001600160a01b031681565b600554610200565b610118610237366004610c1e565b610989565b600354610196906001600160a01b031681565b6102576109c7565b61025f6109f1565b6001600160a01b0385166102b15760405162461bcd60e51b8152602060048201526014602482015273496e76616c69642075736572206164647265737360601b60448201526064015b60405180910390fd5b600084116102f65760405162461bcd60e51b81526020600482015260126024820152710416d6f756e74206d757374206265203e20360741b60448201526064016102a8565b60008381526004602052604090205460ff161561034a5760405162461bcd60e51b8152602060048201526012602482015271139bdb98d948185b1c9958591e481d5cd95960721b60448201526064016102a8565b6040516bffffffffffffffffffffffff19606087811b82166020840152603483018790526054830186905246607484015230901b16609482015260009060a80160408051601f19818403018152908290528051602090910120600354630a5c54b360e01b83529092506001600160a01b031690630a5c54b3906103d590849087908790600401610cf8565b602060405180830381865afa1580156103f2573d6000803e3d6000fd5b505050506040513d601f19601f820116820180604052508101906104169190610da0565b6104575760405162461bcd60e51b8152602060048201526012602482015271496e76616c6964207369676e61747572657360701b60448201526064016102a8565b6000848152600460205260408120805460ff19166001179055600554612710906104819088610dd8565b61048b9190610df5565b905060006104998288610e17565b6002546040516340c10f1960e01b81526001600160a01b038b81166004830152602482018490529293509116906340c10f1990604401600060405180830381600087803b1580156104e957600080fd5b505af11580156104fd573d6000803e3d6000fd5b505050506000821115610594576002546001600160a01b03166340c10f196105336001546001600160a01b036101009091041690565b6040516001600160e01b031960e084901b1681526001600160a01b03909116600482015260248101859052604401600060405180830381600087803b15801561057b57600080fd5b505af115801561058f573d6000803e3d6000fd5b505050505b6040805182815260208101889052428183015290516001600160a01b038a16917f6155cfd0fd028b0ca77e8495a60cbe563e8bce8611f0aad6fedbdaafc05d44a2919081900360600190a25050506105ec6001600055565b5050505050565b6105fb610a15565b610603610a48565b565b61060d610a15565b6106036000610a9a565b61061f610a15565b6001600160a01b0381166106755760405162461bcd60e51b815260206004820152601860248201527f496e76616c69642072656769737472792061646472657373000000000000000060448201526064016102a8565b600380546001600160a01b038381166001600160a01b0319831681179093556040519116919082907ff9b714c579e18daa2046b9ddabfdbf33a903990af9da798e304b36822d0350d190600090a35050565b6106cf610a15565b610603610af4565b6106df610a15565b6127108111156107315760405162461bcd60e51b815260206004820152601f60248201527f46656520746f6f206869676820286d6178203130303030203d2031303025290060448201526064016102a8565b600580549082905560408051828152602081018490527f528d9479e9f9889a87a3c30c7f7ba537e5e59c4c85a37733b16e57c62df61302910160405180910390a15050565b61077e6109c7565b6107866109f1565b600084116107cb5760405162461bcd60e51b81526020600482015260126024820152710416d6f756e74206d757374206265203e20360741b60448201526064016102a8565b60ff831615806107de57508260ff166002145b61082a5760405162461bcd60e51b815260206004820152601f60248201527f496e76616c696420636861696e2028303d536f6c616e612c20323d537569290060448201526064016102a8565b60208114806108395750601481145b61087e5760405162461bcd60e51b8152602060048201526016602482015275092dcecc2d8d2c840c2c8c8e4cae6e640d8cadccee8d60531b60448201526064016102a8565b6040516bffffffffffffffffffffffff193360601b1660208201526034810185905242605482015243607482015260009060940160408051808303601f1901815290829052805160209091012060025463079cc67960e41b8352336004840152602483018890529092506001600160a01b0316906379cc679090604401600060405180830381600087803b15801561091557600080fd5b505af1158015610929573d6000803e3d6000fd5b50505050336001600160a01b03167f2a2785aea6c59147c83c461827c18e2721bfcd6dfd9019777623695461fa6d6f86838787874260405161097096959493929190610e2a565b60405180910390a2506109836001600055565b50505050565b610991610a15565b6001600160a01b0381166109bb57604051631e4fbdf760e01b8152600060048201526024016102a8565b6109c481610a9a565b50565b6002600054036109ea57604051633ee5aeb560e01b815260040160405180910390fd5b6002600055565b60015460ff16156106035760405163d93c066560e01b815260040160405180910390fd5b6001546001600160a01b036101009091041633146106035760405163118cdaa760e01b81523360048201526024016102a8565b610a50610b2f565b6001805460ff191690557f5db9ee0a495bf2e6ff9c91a7834c1ba4fdd244a5e8aa4e537bd38aeae4b073aa335b6040516001600160a01b03909116815260200160405180910390a1565b600180546001600160a01b03838116610100818102610100600160a81b031985161790945560405193909204169182907f8be0079c531659141344cd1fd0a4f28419497f9722a3daafe3b4186f6b6457e090600090a35050565b610afc6109f1565b6001805460ff1916811790557f62e78cea01bee320cd4e420270b5ea74000d11b0c9f74754ebdbfc544b05a25833610a7d565b60015460ff1661060357604051638dfc202b60e01b815260040160405180910390fd5b80356001600160a01b0381168114610b6957600080fd5b919050565b600080600080600060808688031215610b8657600080fd5b610b8f86610b52565b94506020860135935060408601359250606086013567ffffffffffffffff80821115610bba57600080fd5b818801915088601f830112610bce57600080fd5b813581811115610bdd57600080fd5b8960208260051b8501011115610bf257600080fd5b9699959850939650602001949392505050565b600060208284031215610c1757600080fd5b5035919050565b600060208284031215610c3057600080fd5b610c3982610b52565b9392505050565b60008060008060608587031215610c5657600080fd5b84359350602085013560ff81168114610c6e57600080fd5b9250604085013567ffffffffffffffff80821115610c8b57600080fd5b818701915087601f830112610c9f57600080fd5b813581811115610cae57600080fd5b886020828501011115610cc057600080fd5b95989497505060200194505050565b81835281816020850137506000828201602090810191909152601f909101601f19169091010190565b60006040820185835260206040818501528185835260608501905060608660051b86010192508660005b87811015610d9257868503605f190183528135368a9003601e19018112610d4857600080fd5b8901848101903567ffffffffffffffff811115610d6457600080fd5b803603821315610d7357600080fd5b610d7e878284610ccf565b965050509183019190830190600101610d22565b509298975050505050505050565b600060208284031215610db257600080fd5b81518015158114610c3957600080fd5b634e487b7160e01b600052601160045260246000fd5b8082028115828204841417610def57610def610dc2565b92915050565b600082610e1257634e487b7160e01b600052601260045260246000fd5b500490565b81810381811115610def57610def610dc2565b86815285602082015260ff8516604082015260a060608201526000610e5360a083018587610ccf565b905082608083015297965050505050505056fea26469706673582212202b3afa5147190595bbacbfcb12c2aad52c377ff87756bbd6a4f8d25ca622679a64736f6c63430008140033",
  "linkReferences": {},
  "deployedLinkReferences": {}
}