{
  "_format": "hh-sol-artifact-1",
  "contractName": "ValidatorRegistry",
  "sourceName": "contracts/ValidatorRegistry.sol",
  "abi": [
    {
      "inputs": [
        {
          "internalType": "address[]",
          "name": "_validators",
          "type": "address[]"
        },
        {
          "internalType": "uint256",
          "name": "_threshold",
          "type": "uint256"
        }
      ],
      "stateMutability": "nonpayable",
      "type": "constructor"
    },
    {
      "inputs": [],
      "name": "ECDSAInvalidSignature",
      "type": "error"
    },
    {
      "inputs": [
        {
          "internalType": "uint256",
          "name": "length",
          "type": "uint256"
        }
      ],
      "name": "ECDSAInvalidSignatureLength",
      "type": "error"
    },
    {
      "inputs": [
        {
          "internalType": "bytes32",
          "name": "s",
          "type": "bytes32"
        }
      ],
      "name": "ECDSAInvalidSignatureS",
      "type": "error"
    },
    {
      "inputs": [
        {
          "internalType": "address",
          "name": "owner",
          "type": "address"
        }
      ],
      "name": "OwnableInvalidOwner",
      "type": "error"
    },
    {
      "inputs": [
        {
          "internalType": "address",
          "name": "account",
          "type": "address"
        }
      ],
      "name": "OwnableUnauthorizedAccount",
      "type": "error"
    },
    {
      "anonymous": false,
      "inputs": [
        {
          "indexed": true,
          "internalType": "address",
          "name": "previousOwner",
          "type": "address"
        },
        {
          "indexed": true,
          "internalType": "address",
          "name": "newOwner",
          "type": "address"
        }
      ],
      "name": "OwnershipTransferred",
      "type": "event"
    },
    {
      "anonymous": false,
      "inputs": [
        {
          "indexed": false,
          "internalType": "uint256",
          "name": "oldThreshold",
          "type": "uint256"
        },
        {
          "indexed": false,
          "internalType": "uint256",
          "name": "newThreshold",
          "type": "uint256"
        }
      ],
      "name": "ThresholdUpdated",
      "type": "event"
    },
    {
      "anonymous": false,
      "inputs": [
        {
          "indexed": true,
          "internalType": "address",
          "name": "validator",
          "type": "address"
        }
      ],
      "name": "ValidatorAdded",
      "type": "event"
    },
    {
      "anonymous": false,
      "inputs": [
        {
          "indexed": true,
          "internalType": "address",
          "name": "validator",
          "type": "address"
        }
      ],
      "name": "ValidatorRemoved",
      "type": "event"
    },
    {
      "inputs": [
        {
          "internalType": "address",
          "name": "validator",
          "type": "address"
        }
      ],
      "name": "addValidator",
      "outputs": [],
      "stateMutability": "nonpayable",
      "type": "function"
    },
    {
      "inputs": [],
      "name": "getValidatorCount",
      "outputs": [
        {
          "internalType": "uint256",
          "name": "",
          "type": "uint256"
        }
      ],
      "stateMutability": "view",
      "type": "function"
    },
    {
      "inputs": [],
      "name": "getValidators",
      "outputs": [
        {
          "internalType": "address[]",
          "name": "",
          "type": "address[]"
        }
      ],
      "stateMutability": "view",
      "type": "function"
    },
    {
      "inputs": [
        {
          "internalType": "address",
          "name": "",
          "type": "address"
        }
      ],
      "name": "isValidator",
      "outputs": [
        {
          "internalType": "bool",
          "name": "",
          "type": "bool"
        }
      ],
      "stateMutability": "view",
      "type": "function"
    },
    {
      "inputs": [],
      "name": "owner",
      "outputs": [
        {
          "internalType": "address",
          "name": "",
          "type": "address"
        }
      ],
      "stateMutability": "view",
      "type": "function"
    },
    {
      "inputs": [
        {
          "internalType": "address",
          "name": "validator",
          "type": "address"
        }
      ],
      "name": "removeValidator",
      "outputs": [],
      "stateMutability": "nonpayable",
      "type": "function"
    },
    {
      "inputs": [],
      "name": "renounceOwnership",
      "outputs": [],
      "stateMutability": "nonpayable",
      "type": "function"
    },
    {
      "inputs": [],
      "name": "threshold",
      "outputs": [
        {
          "internalType": "uint256",
          "name": "",
          "type": "uint256"
        }
      ],
      "stateMutability": "view",
      "type": "function"
    },
    {
      "inputs": [
        {
          "internalType": "address",
          "name": "newOwner",
          "type": "address"
        }
      ],
      "name": "transferOwnership",
      "outputs": [],
      "stateMutability": "nonpayable",
      "type": "function"
    },
    {
      "inputs": [
        {
          "internalType": "uint256",
          "name": "_threshold",
          "type": "uint256"
        }
      ],
      "name": "updateThreshold",
      "outputs": [],
      "stateMutability": "nonpayable",
      "type": "function"
    },
    {
      "inputs": [
        {
          "internalType": "uint256",
          "name": "",
          "type": "uint256"
        }
      ],
      "name": "validators",
      "outputs": [
        {
          "internalType": "address",
          "name": "",
          "type": "address"
        }
      ],
      "stateMutability": "view",
      "type": "function"
    },
    {
      "inputs": [
        {
          "internalType": "bytes32",
          "name": "messageHash",
          "type": "bytes32"
        },
        {
          "internalType": "bytes[]",
          "name": "signatures",
          "type": "bytes[]"
        }
      ],
      "name": "verifySignatures",
      "outputs": [
        {
          "internalType": "bool",
          "name": "",
          "type": "bool"
        }
      ],
      "stateMutability": "view",
      "type": "function"
    }
  ],
  "bytecode": "0x60806040523480156200001157600080fd5b506040516200123e3803806200123e83398101604081905262000034916200035f565b33806200005c57604051631e4fbdf760e01b8152600060048201526024015b60405180910390fd5b6200006781620002dc565b508082511015620000af5760405162461bcd60e51b8152602060048201526011602482015270125b9d985b1a59081d1a1c995cda1bdb19607a1b604482015260640162000053565b60008111620001015760405162461bcd60e51b815260206004820152601560248201527f5468726573686f6c64206d757374206265203e20300000000000000000000000604482015260640162000053565b60005b8251811015620002d15760006001600160a01b03168382815181106200012e576200012e62000439565b60200260200101516001600160a01b031603620001825760405162461bcd60e51b815260206004820152601160248201527024b73b30b634b2103b30b634b230ba37b960791b604482015260640162000053565b600160008483815181106200019b576200019b62000439565b6020908102919091018101516001600160a01b031682528101919091526040016000205460ff1615620002115760405162461bcd60e51b815260206004820152601360248201527f4475706c69636174652076616c696461746f7200000000000000000000000000604482015260640162000053565b60018060008584815181106200022b576200022b62000439565b60200260200101516001600160a01b03166001600160a01b0316815260200190815260200160002060006101000a81548160ff021916908315150217905550600283828151811062000281576200028162000439565b60209081029190910181015182546001810184556000938452919092200180546001600160a01b0319166001600160a01b0390921691909117905580620002c8816200044f565b91505062000104565b506003555062000477565b600080546001600160a01b038381166001600160a01b0319831681178455604051919092169283917f8be0079c531659141344cd1fd0a4f28419497f9722a3daafe3b4186f6b6457e09190a35050565b634e487b7160e01b600052604160045260246000fd5b80516001600160a01b03811681146200035a57600080fd5b919050565b600080604083850312156200037357600080fd5b82516001600160401b03808211156200038b57600080fd5b818501915085601f830112620003a057600080fd5b8151602082821115620003b757620003b76200032c565b8160051b604051601f19603f83011681018181108682111715620003df57620003df6200032c565b604052928352818301935084810182019289841115620003fe57600080fd5b948201945b838610156200042757620004178662000342565b8552948201949382019362000403565b97909101519698969750505050505050565b634e487b7160e01b600052603260045260246000fd5b6000600182016200047057634e487b7160e01b600052601160045260246000fd5b5060010190565b610db780620004876000396000f3fe608060405234801561001057600080fd5b50600436106100b45760003560e01c8063715018a611610071578063715018a6146101535780638da5cb5b1461015b578063b7ab4db51461016c578063d7d7442f14610181578063f2fde38b14610194578063facd743b146101a757600080fd5b80630a5c54b3146100b957806335aa2e44146100e157806340a141ff1461010c57806342cde4e8146101215780634d238c8e146101385780637071688a1461014b575b600080fd5b6100cc6100c7366004610b8b565b6101ca565b60405190151581526020015b60405180910390f35b6100f46100ef366004610c0a565b610399565b6040516001600160a01b0390911681526020016100d8565b61011f61011a366004610c23565b6103c3565b005b61012a60035481565b6040519081526020016100d8565b61011f610146366004610c23565b6105db565b60025461012a565b61011f610714565b6000546001600160a01b03166100f4565b610174610728565b6040516100d89190610c4c565b61011f61018f366004610c0a565b61078a565b61011f6101a2366004610c23565b610866565b6100cc6101b5366004610c23565b60016020526000908152604090205460ff1681565b60035460009082101561021c5760405162461bcd60e51b81526020600482015260156024820152744e6f7420656e6f756768207369676e61747572657360581b60448201526064015b60405180910390fd5b7f19457468657265756d205369676e6564204d6573736167653a0a3332000000006000908152601c859052603c8120908367ffffffffffffffff81111561026557610265610c99565b60405190808252806020026020018201604052801561028e578160200160208202803683370190505b5090506000805b858110156103875760006103038888848181106102b4576102b4610caf565b90506020028101906102c69190610cc5565b8080601f01602080910402602001604051908101604052809392919081815260200183838082843760009201919091525089939250506108a49050565b6001600160a01b03811660009081526001602052604090205490915060ff16801561033657506103348482856108d0565b155b15610374578084848151811061034e5761034e610caf565b6001600160a01b03909216602092830291909101909101528261037081610d29565b9350505b508061037f81610d29565b915050610295565b506003541115925050505b9392505050565b600281815481106103a957600080fd5b6000918252602090912001546001600160a01b0316905081565b6103cb610935565b6001600160a01b03811660009081526001602052604090205460ff166104255760405162461bcd60e51b815260206004820152600f60248201526e2737ba1030903b30b634b230ba37b960891b6044820152606401610213565b60035460025461043790600190610d42565b101561047d5760405162461bcd60e51b815260206004820152601560248201527415dbdd5b1908189c99585ac81d1a1c995cda1bdb19605a1b6044820152606401610213565b6001600160a01b0381166000908152600160205260408120805460ff191690555b6002548110156105a357816001600160a01b0316600282815481106104c5576104c5610caf565b6000918252602090912001546001600160a01b03160361059157600280546104ef90600190610d42565b815481106104ff576104ff610caf565b600091825260209091200154600280546001600160a01b03909216918390811061052b5761052b610caf565b9060005260206000200160006101000a8154816001600160a01b0302191690836001600160a01b03160217905550600280548061056a5761056a610d55565b600082815260209020810160001990810180546001600160a01b03191690550190556105a3565b8061059b81610d29565b91505061049e565b506040516001600160a01b038216907fe1434e25d6611e0db941968fdc97811c982ac1602e951637d206f5fdda9dd8f190600090a250565b6105e3610935565b6001600160a01b03811660009081526001602052604090205460ff16156106405760405162461bcd60e51b815260206004820152601160248201527020b63932b0b23c903b30b634b230ba37b960791b6044820152606401610213565b6001600160a01b0381166106885760405162461bcd60e51b815260206004820152600f60248201526e496e76616c6964206164647265737360881b6044820152606401610213565b6001600160a01b0381166000818152600160208190526040808320805460ff19168317905560028054928301815583527f405787fa12a823e0f2b7631cc41b3ba8828b3321ca811111fa75cd3aa3bb5ace90910180546001600160a01b03191684179055517fe366c1c0452ed8eec96861e9e54141ebff23c9ec89fe27b996b45f5ec38849879190a250565b61071c610935565b6107266000610962565b565b6060600280548060200260200160405190810160405280929190818152602001828054801561078057602002820191906000526020600020905b81546001600160a01b03168152600190910190602001808311610762575b5050505050905090565b610792610935565b600081116107da5760405162461bcd60e51b815260206004820152601560248201527405468726573686f6c64206d757374206265203e203605c1b6044820152606401610213565b6002548111156108215760405162461bcd60e51b81526020600482015260126024820152710a8d0e4cae6d0ded8c840e8dede40d0d2ced60731b6044820152606401610213565b600380549082905560408051828152602081018490527fb06a54caabe58475c86c2bf9df3f2f06dd1213e9e10659c293117fe4893b274b910160405180910390a15050565b61086e610935565b6001600160a01b03811661089857604051631e4fbdf760e01b815260006004820152602401610213565b6108a181610962565b50565b6000806000806108b486866109b2565b9250925092506108c482826109ff565b50909150505b92915050565b6000805b8281101561092a57836001600160a01b03168582815181106108f8576108f8610caf565b60200260200101516001600160a01b031603610918576001915050610392565b8061092281610d29565b9150506108d4565b506000949350505050565b6000546001600160a01b031633146107265760405163118cdaa760e01b8152336004820152602401610213565b600080546001600160a01b038381166001600160a01b0319831681178455604051919092169283917f8be0079c531659141344cd1fd0a4f28419497f9722a3daafe3b4186f6b6457e09190a35050565b600080600083516041036109ec5760208401516040850151606086015160001a6109de88828585610abc565b9550955095505050506109f8565b50508151600091506002905b9250925092565b6000826003811115610a1357610a13610d6b565b03610a1c575050565b6001826003811115610a3057610a30610d6b565b03610a4e5760405163f645eedf60e01b815260040160405180910390fd5b6002826003811115610a6257610a62610d6b565b03610a835760405163fce698f760e01b815260048101829052602401610213565b6003826003811115610a9757610a97610d6b565b03610ab8576040516335e2f38360e21b815260048101829052602401610213565b5050565b600080807f7fffffffffffffffffffffffffffffff5d576e7357a4501ddfe92f46681b20a0841115610af75750600091506003905082610b81565b604080516000808252602082018084528a905260ff891692820192909252606081018790526080810186905260019060a0016020604051602081039080840390855afa158015610b4b573d6000803e3d6000fd5b5050604051601f1901519150506001600160a01b038116610b7757506000925060019150829050610b81565b9250600091508190505b9450945094915050565b600080600060408486031215610ba057600080fd5b83359250602084013567ffffffffffffffff80821115610bbf57600080fd5b818601915086601f830112610bd357600080fd5b813581811115610be257600080fd5b8760208260051b8501011115610bf757600080fd5b6020830194508093505050509250925092565b600060208284031215610c1c57600080fd5b5035919050565b600060208284031215610c3557600080fd5b81356001600160a01b038116811461039257600080fd5b6020808252825182820181905260009190848201906040850190845b81811015610c8d5783516001600160a01b031683529284019291840191600101610c68565b50909695505050505050565b634e487b7160e01b600052604160045260246000fd5b634e487b7160e01b600052603260045260246000fd5b6000808335601e19843603018112610cdc57600080fd5b83018035915067ffffffffffffffff821115610cf757600080fd5b602001915036819003821315610d0c57600080fd5b9250929050565b634e487b7160e01b600052601160045260246000fd5b600060018201610d3b57610d3b610d13565b5060010190565b818103818111156108ca576108ca610d13565b634e487b7160e01b600052603160045260246000fd5b634e487b7160e01b600052602160045260246000fdfea2646970667358221220052d43004ba6bc8a3f18322e5d20c83df758ed5084934a69ada55c898a3b829964736f6c63430008140033",
  "linkReferences": {},
  "deployedLinkReferences": {}
}